{
  "address": "0x9A898F020Db575A5Dd951189B8D44f6e4d84FF5B",
  "abi": [
    {
      "inputs": [
        {
          "internalType": "string",
          "name": "_baseUri",
          "type": "string"
        }
      ],
      "stateMutability": "nonpayable",
      "type": "constructor"
    },
    {
      "inputs": [
        {
          "internalType": "address",
          "name": "sender",
          "type": "address"
        },
        {
          "internalType": "uint256",
          "name": "tokenId",
          "type": "uint256"
        },
        {
          "internalType": "address",
          "name": "owner",
          "type": "address"
        }
      ],
      "name": "ERC721IncorrectOwner",
      "type": "error"
    },
    {
      "inputs": [
        {
          "internalType": "address",
          "name": "operator",
          "type": "address"
        },
        {
          "internalType": "uint256",
          "name": "tokenId",
          "type": "uint256"
        }
      ],
      "name": "ERC721InsufficientApproval",
      "type": "error"
    },
    {
      "inputs": [
        {
          "internalType": "address",
          "name": "approver",
          "type": "address"
        }
      ],
      "name": "ERC721InvalidApprover",
      "type": "error"
    },
    {
      "inputs": [
        {
          "internalType": "address",
          "name": "operator",
          "type": "address"
        }
      ],
      "name": "ERC721InvalidOperator",
      "type": "error"
    },
    {
      "inputs": [
        {
          "internalType": "address",
          "name": "owner",
          "type": "address"
        }
      ],
      "name": "ERC721InvalidOwner",
      "type": "error"
    },
    {
      "inputs": [
        {
          "internalType": "address",
          "name": "receiver",
          "type": "address"
        }
      ],
      "name": "ERC721InvalidReceiver",
      "type": "error"
    },
    {
      "inputs": [
        {
          "internalType": "address",
          "name": "sender",
          "type": "address"
        }
      ],
      "name": "ERC721InvalidSender",
      "type": "error"
    },
    {
      "inputs": [
        {
          "internalType": "uint256",
          "name": "tokenId",
          "type": "uint256"
        }
      ],
      "name": "ERC721NonexistentToken",
      "type": "error"
    },
    {
      "inputs": [
        {
          "internalType": "address",
          "name": "owner",
          "type": "address"
        }
      ],
      "name": "OwnableInvalidOwner",
      "type": "error"
    },
    {
      "inputs": [
        {
          "internalType": "address",
          "name": "account",
          "type": "address"
        }
      ],
      "name": "OwnableUnauthorizedAccount",
      "type": "error"
    },
    {
      "anonymous": false,
      "inputs": [
        {
          "indexed": true,
          "internalType": "address",
          "name": "owner",
          "type": "address"
        },
        {
          "indexed": true,
          "internalType": "address",
          "name": "approved",
          "type": "address"
        },
        {
          "indexed": true,
          "internalType": "uint256",
          "name": "tokenId",
          "type": "uint256"
        }
      ],
      "name": "Approval",
      "type": "event"
    },
    {
      "anonymous": false,
      "inputs": [
        {
          "indexed": true,
          "internalType": "address",
          "name": "owner",
          "type": "address"
        },
        {
          "indexed": true,
          "internalType": "address",
          "name": "operator",
          "type": "address"
        },
        {
          "indexed": false,
          "internalType": "bool",
          "name": "approved",
          "type": "bool"
        }
      ],
      "name": "ApprovalForAll",
      "type": "event"
    },
    {
      "anonymous": false,
      "inputs": [
        {
          "indexed": false,
          "internalType": "uint256",
          "name": "_fromTokenId",
          "type": "uint256"
        },
        {
          "indexed": false,
          "internalType": "uint256",
          "name": "_toTokenId",
          "type": "uint256"
        }
      ],
      "name": "BatchMetadataUpdate",
      "type": "event"
    },
    {
      "anonymous": false,
      "inputs": [
        {
          "indexed": false,
          "internalType": "uint256",
          "name": "_tokenId",
          "type": "uint256"
        }
      ],
      "name": "MetadataUpdate",
      "type": "event"
    },
    {
      "anonymous": false,
      "inputs": [
        {
          "indexed": true,
          "internalType": "address",
          "name": "previousOwner",
          "type": "address"
        },
        {
          "indexed": true,
          "internalType": "address",
          "name": "newOwner",
          "type": "address"
        }
      ],
      "name": "OwnershipTransferred",
      "type": "event"
    },
    {
      "anonymous": false,
      "inputs": [
        {
          "indexed": true,
          "internalType": "address",
          "name": "from",
          "type": "address"
        },
        {
          "indexed": true,
          "internalType": "address",
          "name": "to",
          "type": "address"
        },
        {
          "indexed": true,
          "internalType": "uint256",
          "name": "tokenId",
          "type": "uint256"
        }
      ],
      "name": "Transfer",
      "type": "event"
    },
    {
      "inputs": [
        {
          "internalType": "address",
          "name": "to",
          "type": "address"
        },
        {
          "internalType": "uint256",
          "name": "tokenId",
          "type": "uint256"
        }
      ],
      "name": "approve",
      "outputs": [],
      "stateMutability": "nonpayable",
      "type": "function"
    },
    {
      "inputs": [
        {
          "internalType": "address",
          "name": "owner",
          "type": "address"
        }
      ],
      "name": "balanceOf",
      "outputs": [
        {
          "internalType": "uint256",
          "name": "",
          "type": "uint256"
        }
      ],
      "stateMutability": "view",
      "type": "function"
    },
    {
      "inputs": [],
      "name": "baseURI",
      "outputs": [
        {
          "internalType": "string",
          "name": "",
          "type": "string"
        }
      ],
      "stateMutability": "view",
      "type": "function"
    },
    {
      "inputs": [
        {
          "internalType": "uint256",
          "name": "tokenId",
          "type": "uint256"
        }
      ],
      "name": "burn",
      "outputs": [],
      "stateMutability": "nonpayable",
      "type": "function"
    },
    {
      "inputs": [
        {
          "internalType": "uint256",
          "name": "tokenId",
          "type": "uint256"
        }
      ],
      "name": "getApproved",
      "outputs": [
        {
          "internalType": "address",
          "name": "",
          "type": "address"
        }
      ],
      "stateMutability": "view",
      "type": "function"
    },
    {
      "inputs": [
        {
          "internalType": "address",
          "name": "owner",
          "type": "address"
        },
        {
          "internalType": "address",
          "name": "operator",
          "type": "address"
        }
      ],
      "name": "isApprovedForAll",
      "outputs": [
        {
          "internalType": "bool",
          "name": "",
          "type": "bool"
        }
      ],
      "stateMutability": "view",
      "type": "function"
    },
    {
      "inputs": [],
      "name": "name",
      "outputs": [
        {
          "internalType": "string",
          "name": "",
          "type": "string"
        }
      ],
      "stateMutability": "view",
      "type": "function"
    },
    {
      "inputs": [],
      "name": "owner",
      "outputs": [
        {
          "internalType": "address",
          "name": "",
          "type": "address"
        }
      ],
      "stateMutability": "view",
      "type": "function"
    },
    {
      "inputs": [
        {
          "internalType": "uint256",
          "name": "tokenId",
          "type": "uint256"
        }
      ],
      "name": "ownerOf",
      "outputs": [
        {
          "internalType": "address",
          "name": "",
          "type": "address"
        }
      ],
      "stateMutability": "view",
      "type": "function"
    },
    {
      "inputs": [],
      "name": "renounceOwnership",
      "outputs": [],
      "stateMutability": "nonpayable",
      "type": "function"
    },
    {
      "inputs": [
        {
          "internalType": "address",
          "name": "to",
          "type": "address"
        },
        {
          "internalType": "string",
          "name": "uri",
          "type": "string"
        }
      ],
      "name": "safeMint",
      "outputs": [],
      "stateMutability": "nonpayable",
      "type": "function"
    },
    {
      "inputs": [
        {
          "internalType": "address",
          "name": "from",
          "type": "address"
        },
        {
          "internalType": "address",
          "name": "to",
          "type": "address"
        },
        {
          "internalType": "uint256",
          "name": "tokenId",
          "type": "uint256"
        }
      ],
      "name": "safeTransferFrom",
      "outputs": [],
      "stateMutability": "nonpayable",
      "type": "function"
    },
    {
      "inputs": [
        {
          "internalType": "address",
          "name": "from",
          "type": "address"
        },
        {
          "internalType": "address",
          "name": "to",
          "type": "address"
        },
        {
          "internalType": "uint256",
          "name": "tokenId",
          "type": "uint256"
        },
        {
          "internalType": "bytes",
          "name": "data",
          "type": "bytes"
        }
      ],
      "name": "safeTransferFrom",
      "outputs": [],
      "stateMutability": "nonpayable",
      "type": "function"
    },
    {
      "inputs": [
        {
          "internalType": "address",
          "name": "operator",
          "type": "address"
        },
        {
          "internalType": "bool",
          "name": "approved",
          "type": "bool"
        }
      ],
      "name": "setApprovalForAll",
      "outputs": [],
      "stateMutability": "nonpayable",
      "type": "function"
    },
    {
      "inputs": [
        {
          "internalType": "string",
          "name": "uri",
          "type": "string"
        }
      ],
      "name": "setBaseUri",
      "outputs": [],
      "stateMutability": "nonpayable",
      "type": "function"
    },
    {
      "inputs": [
        {
          "internalType": "bytes4",
          "name": "interfaceId",
          "type": "bytes4"
        }
      ],
      "name": "supportsInterface",
      "outputs": [
        {
          "internalType": "bool",
          "name": "",
          "type": "bool"
        }
      ],
      "stateMutability": "view",
      "type": "function"
    },
    {
      "inputs": [],
      "name": "symbol",
      "outputs": [
        {
          "internalType": "string",
          "name": "",
          "type": "string"
        }
      ],
      "stateMutability": "view",
      "type": "function"
    },
    {
      "inputs": [
        {
          "internalType": "uint256",
          "name": "tokenId",
          "type": "uint256"
        }
      ],
      "name": "tokenURI",
      "outputs": [
        {
          "internalType": "string",
          "name": "",
          "type": "string"
        }
      ],
      "stateMutability": "view",
      "type": "function"
    },
    {
      "inputs": [
        {
          "internalType": "address",
          "name": "from",
          "type": "address"
        },
        {
          "internalType": "address",
          "name": "to",
          "type": "address"
        },
        {
          "internalType": "uint256",
          "name": "tokenId",
          "type": "uint256"
        }
      ],
      "name": "transferFrom",
      "outputs": [],
      "stateMutability": "nonpayable",
      "type": "function"
    },
    {
      "inputs": [
        {
          "internalType": "address",
          "name": "newOwner",
          "type": "address"
        }
      ],
      "name": "transferOwnership",
      "outputs": [],
      "stateMutability": "nonpayable",
      "type": "function"
    }
  ],
  "transactionHash": "0xefec82723689a75e0fafb2c9d87c4c88fbbf591f27e26ce76ebc888fdd33e521",
  "args": [
    "https://arweave.net/jiTao2EwyXUGlxbBsvG1x2Do5bQ4UkfXwQ0xnVmk1uQ/"
  ],
  "numDeployments": 1,
  "solcInputHash": "eda4bb06d5773e585bea5106d77f4373",
  "bytecode": "0x60806040523480156200001157600080fd5b5060405162001962380380620019628339810160408190526200003491620001af565b336040518060400160405280601881526020017f53636166666f6c645265636970654e46544261736555726900000000000000008152506040518060400160405280600581526020016453524e425560d81b81525081600090816200009a919062000315565b506001620000a9828262000315565b5050506001600160a01b038116620000dc57604051631e4fbdf760e01b8152600060048201526024015b60405180910390fd5b620000e781620000fa565b50620000f3816200014c565b50620003e1565b600780546001600160a01b038381166001600160a01b0319831681179093556040519116919082907f8be0079c531659141344cd1fd0a4f28419497f9722a3daafe3b4186f6b6457e090600090a35050565b6200015662000168565b600962000164828262000315565b5050565b6007546001600160a01b03163314620001975760405163118cdaa760e01b8152336004820152602401620000d3565b565b634e487b7160e01b600052604160045260246000fd5b60006020808385031215620001c357600080fd5b82516001600160401b0380821115620001db57600080fd5b818501915085601f830112620001f057600080fd5b81518181111562000205576200020562000199565b604051601f8201601f19908116603f0116810190838211818310171562000230576200023062000199565b8160405282815288868487010111156200024957600080fd5b600093505b828410156200026d57848401860151818501870152928501926200024e565b600086848301015280965050505050505092915050565b600181811c908216806200029957607f821691505b602082108103620002ba57634e487b7160e01b600052602260045260246000fd5b50919050565b601f82111562000310576000816000526020600020601f850160051c81016020861015620002eb5750805b601f850160051c820191505b818110156200030c57828155600101620002f7565b5050505b505050565b81516001600160401b0381111562000331576200033162000199565b620003498162000342845462000284565b84620002c0565b602080601f831160018114620003815760008415620003685750858301515b600019600386901b1c1916600185901b1785556200030c565b600085815260208120601f198616915b82811015620003b25788860151825594840194600190910190840162000391565b5085821015620003d15787850151600019600388901b60f8161c191681555b5050505050600190811b01905550565b61157180620003f16000396000f3fe608060405234801561001057600080fd5b506004361061012c5760003560e01c8063715018a6116100ad578063b88d4fde11610071578063b88d4fde1461026a578063c87b56dd1461027d578063d204c45e14610290578063e985e9c5146102a3578063f2fde38b146102b657600080fd5b8063715018a6146102235780638da5cb5b1461022b57806395d89b411461023c578063a0bcfc7f14610244578063a22cb4651461025757600080fd5b806342842e0e116100f457806342842e0e146101c157806342966c68146101d45780636352211e146101e75780636c0360eb146101fa57806370a082311461020257600080fd5b806301ffc9a71461013157806306fdde0314610159578063081812fc1461016e578063095ea7b31461019957806323b872dd146101ae575b600080fd5b61014461013f366004610ff1565b6102c9565b60405190151581526020015b60405180910390f35b6101616102da565b604051610150919061105e565b61018161017c366004611071565b61036c565b6040516001600160a01b039091168152602001610150565b6101ac6101a73660046110a6565b610395565b005b6101ac6101bc3660046110d0565b6103a4565b6101ac6101cf3660046110d0565b610434565b6101ac6101e2366004611071565b610454565b6101816101f5366004611071565b610460565b61016161046b565b61021561021036600461110c565b6104f9565b604051908152602001610150565b6101ac610541565b6007546001600160a01b0316610181565b610161610555565b6101ac6102523660046111d3565b610564565b6101ac610265366004611208565b610578565b6101ac610278366004611244565b610583565b61016161028b366004611071565b61059a565b6101ac61029e3660046112c0565b6105a5565b6101446102b136600461130e565b6105d0565b6101ac6102c436600461110c565b6105fe565b60006102d48261063c565b92915050565b6060600080546102e990611341565b80601f016020809104026020016040519081016040528092919081815260200182805461031590611341565b80156103625780601f1061033757610100808354040283529160200191610362565b820191906000526020600020905b81548152906001019060200180831161034557829003601f168201915b5050505050905090565b600061037782610661565b506000828152600460205260409020546001600160a01b03166102d4565b6103a082823361069a565b5050565b6001600160a01b0382166103d357604051633250574960e11b8152600060048201526024015b60405180910390fd5b60006103e08383336106a7565b9050836001600160a01b0316816001600160a01b03161461042e576040516364283d7b60e01b81526001600160a01b03808616600483015260248201849052821660448201526064016103ca565b50505050565b61044f83838360405180602001604052806000815250610583565b505050565b6103a0600082336106a7565b60006102d482610661565b6009805461047890611341565b80601f01602080910402602001604051908101604052809291908181526020018280546104a490611341565b80156104f15780601f106104c6576101008083540402835291602001916104f1565b820191906000526020600020905b8154815290600101906020018083116104d457829003601f168201915b505050505081565b60006001600160a01b038216610525576040516322718ad960e21b8152600060048201526024016103ca565b506001600160a01b031660009081526003602052604090205490565b6105496107a0565b61055360006107cd565b565b6060600180546102e990611341565b61056c6107a0565b60096103a082826113cb565b6103a033838361081f565b61058e8484846103a4565b61042e848484846108be565b60606102d4826109e7565b60088054600091826105b68361148b565b9190505590506105c68382610af8565b61044f8183610b12565b6001600160a01b03918216600090815260056020908152604080832093909416825291909152205460ff1690565b6106066107a0565b6001600160a01b03811661063057604051631e4fbdf760e01b8152600060048201526024016103ca565b610639816107cd565b50565b60006001600160e01b03198216632483248360e11b14806102d457506102d482610b62565b6000818152600260205260408120546001600160a01b0316806102d457604051637e27328960e01b8152600481018490526024016103ca565b61044f8383836001610bb2565b6000828152600260205260408120546001600160a01b03908116908316156106d4576106d4818486610cb8565b6001600160a01b03811615610712576106f1600085600080610bb2565b6001600160a01b038116600090815260036020526040902080546000190190555b6001600160a01b03851615610741576001600160a01b0385166000908152600360205260409020805460010190555b60008481526002602052604080822080546001600160a01b0319166001600160a01b0389811691821790925591518793918516917fddf252ad1be2c89b69c2b068fc378daa952ba7f163c4a11628f55a4df523b3ef91a4949350505050565b6007546001600160a01b031633146105535760405163118cdaa760e01b81523360048201526024016103ca565b600780546001600160a01b038381166001600160a01b0319831681179093556040519116919082907f8be0079c531659141344cd1fd0a4f28419497f9722a3daafe3b4186f6b6457e090600090a35050565b6001600160a01b03821661085157604051630b61174360e31b81526001600160a01b03831660048201526024016103ca565b6001600160a01b03838116600081815260056020908152604080832094871680845294825291829020805460ff191686151590811790915591519182527f17307eab39ab6107e8899845ad3d59bd9653f200f220920489ca2b5937696c31910160405180910390a3505050565b6001600160a01b0383163b1561042e57604051630a85bd0160e11b81526001600160a01b0384169063150b7a02906109009033908890879087906004016114b2565b6020604051808303816000875af192505050801561093b575060408051601f3d908101601f19168201909252610938918101906114ef565b60015b6109a4573d808015610969576040519150601f19603f3d011682016040523d82523d6000602084013e61096e565b606091505b50805160000361099c57604051633250574960e11b81526001600160a01b03851660048201526024016103ca565b805181602001fd5b6001600160e01b03198116630a85bd0160e11b146109e057604051633250574960e11b81526001600160a01b03851660048201526024016103ca565b5050505050565b60606109f282610661565b5060008281526006602052604081208054610a0c90611341565b80601f0160208091040260200160405190810160405280929190818152602001828054610a3890611341565b8015610a855780601f10610a5a57610100808354040283529160200191610a85565b820191906000526020600020905b815481529060010190602001808311610a6857829003601f168201915b505050505090506000610aa360408051602081019091526000815290565b90508051600003610ab5575092915050565b815115610ae7578082604051602001610acf92919061150c565b60405160208183030381529060405292505050919050565b610af084610d1c565b949350505050565b6103a0828260405180602001604052806000815250610d91565b6000828152600660205260409020610b2a82826113cb565b506040518281527ff8e1a15aba9398e019f0b49df1a4fde98ee17ae345cb5f6b5e2c27f5033e8ce79060200160405180910390a15050565b60006001600160e01b031982166380ac58cd60e01b1480610b9357506001600160e01b03198216635b5e139f60e01b145b806102d457506301ffc9a760e01b6001600160e01b03198316146102d4565b8080610bc657506001600160a01b03821615155b15610c88576000610bd684610661565b90506001600160a01b03831615801590610c025750826001600160a01b0316816001600160a01b031614155b8015610c155750610c1381846105d0565b155b15610c3e5760405163a9fbf51f60e01b81526001600160a01b03841660048201526024016103ca565b8115610c865783856001600160a01b0316826001600160a01b03167f8c5be1e5ebec7d5bd14f71427d1e84f3dd0314c0f7b2291e5b200ac8c7c3b92560405160405180910390a45b505b5050600090815260046020526040902080546001600160a01b0319166001600160a01b0392909216919091179055565b610cc3838383610da8565b61044f576001600160a01b038316610cf157604051637e27328960e01b8152600481018290526024016103ca565b60405163177e802f60e01b81526001600160a01b0383166004820152602481018290526044016103ca565b6060610d2782610661565b506000610d3f60408051602081019091526000815290565b90506000815111610d5f5760405180602001604052806000815250610d8a565b80610d6984610e0b565b604051602001610d7a92919061150c565b6040516020818303038152906040525b9392505050565b610d9b8383610e9e565b61044f60008484846108be565b60006001600160a01b03831615801590610af05750826001600160a01b0316846001600160a01b03161480610de25750610de284846105d0565b80610af05750506000908152600460205260409020546001600160a01b03908116911614919050565b60606000610e1883610f03565b600101905060008167ffffffffffffffff811115610e3857610e38611127565b6040519080825280601f01601f191660200182016040528015610e62576020820181803683370190505b5090508181016020015b600019016f181899199a1a9b1b9c1cb0b131b232b360811b600a86061a8153600a8504945084610e6c57509392505050565b6001600160a01b038216610ec857604051633250574960e11b8152600060048201526024016103ca565b6000610ed6838360006106a7565b90506001600160a01b0381161561044f576040516339e3563760e11b8152600060048201526024016103ca565b60008072184f03e93ff9f4daa797ed6e38ed64bf6a1f0160401b8310610f425772184f03e93ff9f4daa797ed6e38ed64bf6a1f0160401b830492506040015b6d04ee2d6d415b85acef81000000008310610f6e576d04ee2d6d415b85acef8100000000830492506020015b662386f26fc100008310610f8c57662386f26fc10000830492506010015b6305f5e1008310610fa4576305f5e100830492506008015b6127108310610fb857612710830492506004015b60648310610fca576064830492506002015b600a83106102d45760010192915050565b6001600160e01b03198116811461063957600080fd5b60006020828403121561100357600080fd5b8135610d8a81610fdb565b60005b83811015611029578181015183820152602001611011565b50506000910152565b6000815180845261104a81602086016020860161100e565b601f01601f19169290920160200192915050565b602081526000610d8a6020830184611032565b60006020828403121561108357600080fd5b5035919050565b80356001600160a01b03811681146110a157600080fd5b919050565b600080604083850312156110b957600080fd5b6110c28361108a565b946020939093013593505050565b6000806000606084860312156110e557600080fd5b6110ee8461108a565b92506110fc6020850161108a565b9150604084013590509250925092565b60006020828403121561111e57600080fd5b610d8a8261108a565b634e487b7160e01b600052604160045260246000fd5b600067ffffffffffffffff8084111561115857611158611127565b604051601f8501601f19908116603f0116810190828211818310171561118057611180611127565b8160405280935085815286868601111561119957600080fd5b858560208301376000602087830101525050509392505050565b600082601f8301126111c457600080fd5b610d8a8383356020850161113d565b6000602082840312156111e557600080fd5b813567ffffffffffffffff8111156111fc57600080fd5b610af0848285016111b3565b6000806040838503121561121b57600080fd5b6112248361108a565b91506020830135801515811461123957600080fd5b809150509250929050565b6000806000806080858703121561125a57600080fd5b6112638561108a565b93506112716020860161108a565b925060408501359150606085013567ffffffffffffffff81111561129457600080fd5b8501601f810187136112a557600080fd5b6112b48782356020840161113d565b91505092959194509250565b600080604083850312156112d357600080fd5b6112dc8361108a565b9150602083013567ffffffffffffffff8111156112f857600080fd5b611304858286016111b3565b9150509250929050565b6000806040838503121561132157600080fd5b61132a8361108a565b91506113386020840161108a565b90509250929050565b600181811c9082168061135557607f821691505b60208210810361137557634e487b7160e01b600052602260045260246000fd5b50919050565b601f82111561044f576000816000526020600020601f850160051c810160208610156113a45750805b601f850160051c820191505b818110156113c3578281556001016113b0565b505050505050565b815167ffffffffffffffff8111156113e5576113e5611127565b6113f9816113f38454611341565b8461137b565b602080601f83116001811461142e57600084156114165750858301515b600019600386901b1c1916600185901b1785556113c3565b600085815260208120601f198616915b8281101561145d5788860151825594840194600190910190840161143e565b508582101561147b5787850151600019600388901b60f8161c191681555b5050505050600190811b01905550565b6000600182016114ab57634e487b7160e01b600052601160045260246000fd5b5060010190565b6001600160a01b03858116825284166020820152604081018390526080606082018190526000906114e590830184611032565b9695505050505050565b60006020828403121561150157600080fd5b8151610d8a81610fdb565b6000835161151e81846020880161100e565b83519083019061153281836020880161100e565b0194935050505056fea2646970667358221220599e27be8ee20b5e1c5497c17be647fafdad1c7d6f5a4823c7fdf1cc47169ade64736f6c63430008170033",
  "devdoc": {
    "errors": {
      "ERC721IncorrectOwner(address,uint256,address)": [
        {
          "details": "Indicates an error related to the ownership over a particular token. Used in transfers.",
          "params": {
            "owner": "Address of the current owner of a token.",
            "sender": "Address whose tokens are being transferred.",
            "tokenId": "Identifier number of a token."
          }
        }
      ],
      "ERC721InsufficientApproval(address,uint256)": [
        {
          "details": "Indicates a failure with the `operator`s approval. Used in transfers.",
          "params": {
            "operator": "Address that may be allowed to operate on tokens without being their owner.",
            "tokenId": "Identifier number of a token."
          }
        }
      ],
      "ERC721InvalidApprover(address)": [
        {
          "details": "Indicates a failure with the `approver` of a token to be approved. Used in approvals.",
          "params": {
            "approver": "Address initiating an approval operation."
          }
        }
      ],
      "ERC721InvalidOperator(address)": [
        {
          "details": "Indicates a failure with the `operator` to be approved. Used in approvals.",
          "params": {
            "operator": "Address that may be allowed to operate on tokens without being their owner."
          }
        }
      ],
      "ERC721InvalidOwner(address)": [
        {
          "details": "Indicates that an address can't be an owner. For example, `address(0)` is a forbidden owner in EIP-20. Used in balance queries.",
          "params": {
            "owner": "Address of the current owner of a token."
          }
        }
      ],
      "ERC721InvalidReceiver(address)": [
        {
          "details": "Indicates a failure with the token `receiver`. Used in transfers.",
          "params": {
            "receiver": "Address to which tokens are being transferred."
          }
        }
      ],
      "ERC721InvalidSender(address)": [
        {
          "details": "Indicates a failure with the token `sender`. Used in transfers.",
          "params": {
            "sender": "Address whose tokens are being transferred."
          }
        }
      ],
      "ERC721NonexistentToken(uint256)": [
        {
          "details": "Indicates a `tokenId` whose `owner` is the zero address.",
          "params": {
            "tokenId": "Identifier number of a token."
          }
        }
      ],
      "OwnableInvalidOwner(address)": [
        {
          "details": "The owner is not a valid owner account. (eg. `address(0)`)"
        }
      ],
      "OwnableUnauthorizedAccount(address)": [
        {
          "details": "The caller account is not authorized to perform an operation."
        }
      ]
    },
    "events": {
      "Approval(address,address,uint256)": {
        "details": "Emitted when `owner` enables `approved` to manage the `tokenId` token."
      },
      "ApprovalForAll(address,address,bool)": {
        "details": "Emitted when `owner` enables or disables (`approved`) `operator` to manage all of its assets."
      },
      "BatchMetadataUpdate(uint256,uint256)": {
        "details": "This event emits when the metadata of a range of tokens is changed. So that the third-party platforms such as NFT market could timely update the images and related attributes of the NFTs."
      },
      "MetadataUpdate(uint256)": {
        "details": "This event emits when the metadata of a token is changed. So that the third-party platforms such as NFT market could timely update the images and related attributes of the NFT."
      },
      "Transfer(address,address,uint256)": {
        "details": "Emitted when `tokenId` token is transferred from `from` to `to`."
      }
    },
    "kind": "dev",
    "methods": {
      "approve(address,uint256)": {
        "details": "See {IERC721-approve}."
      },
      "balanceOf(address)": {
        "details": "See {IERC721-balanceOf}."
      },
      "burn(uint256)": {
        "details": "Burns `tokenId`. See {ERC721-_burn}. Requirements: - The caller must own `tokenId` or be an approved operator."
      },
      "getApproved(uint256)": {
        "details": "See {IERC721-getApproved}."
      },
      "isApprovedForAll(address,address)": {
        "details": "See {IERC721-isApprovedForAll}."
      },
      "name()": {
        "details": "See {IERC721Metadata-name}."
      },
      "owner()": {
        "details": "Returns the address of the current owner."
      },
      "ownerOf(uint256)": {
        "details": "See {IERC721-ownerOf}."
      },
      "renounceOwnership()": {
        "details": "Leaves the contract without owner. It will not be possible to call `onlyOwner` functions. Can only be called by the current owner. NOTE: Renouncing ownership will leave the contract without an owner, thereby disabling any functionality that is only available to the owner."
      },
      "safeMint(address,string)": {
        "params": {
          "to": "The address to mint the token to",
          "uri": "The URI of the token"
        }
      },
      "safeTransferFrom(address,address,uint256)": {
        "details": "See {IERC721-safeTransferFrom}."
      },
      "safeTransferFrom(address,address,uint256,bytes)": {
        "details": "See {IERC721-safeTransferFrom}."
      },
      "setApprovalForAll(address,bool)": {
        "details": "See {IERC721-setApprovalForAll}."
      },
      "setBaseUri(string)": {
        "details": "Only the owner can call this function",
        "params": {
          "uri": "The base URI"
        }
      },
      "supportsInterface(bytes4)": {
        "params": {
          "interfaceId": "The interface ID"
        },
        "returns": {
          "_0": "True if the contract supports the interface, false otherwise"
        }
      },
      "symbol()": {
        "details": "See {IERC721Metadata-symbol}."
      },
      "tokenURI(uint256)": {
        "params": {
          "tokenId": "The token ID"
        },
        "returns": {
          "_0": "The token URI"
        }
      },
      "transferFrom(address,address,uint256)": {
        "details": "See {IERC721-transferFrom}."
      },
      "transferOwnership(address)": {
        "details": "Transfers ownership of the contract to a new account (`newOwner`). Can only be called by the current owner."
      }
    },
    "version": 1
  },
  "userdoc": {
    "kind": "user",
    "methods": {
      "safeMint(address,string)": {
        "notice": "Mint a token"
      },
      "setBaseUri(string)": {
        "notice": "Set the base URI"
      },
      "supportsInterface(bytes4)": {
        "notice": "Check if the contract supports the interface"
      },
      "tokenURI(uint256)": {
        "notice": "Get the token URI"
      }
    },
    "version": 1
  },
  "storageLayout": {
    "storage": [
      {
        "astId": 349,
        "contract": "contracts/ScaffoldRecipeNFTBaseUri.sol:ScaffoldRecipeNFTBaseUri",
        "label": "_name",
        "offset": 0,
        "slot": "0",
        "type": "t_string_storage"
      },
      {
        "astId": 351,
        "contract": "contracts/ScaffoldRecipeNFTBaseUri.sol:ScaffoldRecipeNFTBaseUri",
        "label": "_symbol",
        "offset": 0,
        "slot": "1",
        "type": "t_string_storage"
      },
      {
        "astId": 355,
        "contract": "contracts/ScaffoldRecipeNFTBaseUri.sol:ScaffoldRecipeNFTBaseUri",
        "label": "_owners",
        "offset": 0,
        "slot": "2",
        "type": "t_mapping(t_uint256,t_address)"
      },
      {
        "astId": 359,
        "contract": "contracts/ScaffoldRecipeNFTBaseUri.sol:ScaffoldRecipeNFTBaseUri",
        "label": "_balances",
        "offset": 0,
        "slot": "3",
        "type": "t_mapping(t_address,t_uint256)"
      },
      {
        "astId": 363,
        "contract": "contracts/ScaffoldRecipeNFTBaseUri.sol:ScaffoldRecipeNFTBaseUri",
        "label": "_tokenApprovals",
        "offset": 0,
        "slot": "4",
        "type": "t_mapping(t_uint256,t_address)"
      },
      {
        "astId": 369,
        "contract": "contracts/ScaffoldRecipeNFTBaseUri.sol:ScaffoldRecipeNFTBaseUri",
        "label": "_operatorApprovals",
        "offset": 0,
        "slot": "5",
        "type": "t_mapping(t_address,t_mapping(t_address,t_bool))"
      },
      {
        "astId": 1517,
        "contract": "contracts/ScaffoldRecipeNFTBaseUri.sol:ScaffoldRecipeNFTBaseUri",
        "label": "_tokenURIs",
        "offset": 0,
        "slot": "6",
        "type": "t_mapping(t_uint256,t_string_storage)"
      },
      {
        "astId": 8,
        "contract": "contracts/ScaffoldRecipeNFTBaseUri.sol:ScaffoldRecipeNFTBaseUri",
        "label": "_owner",
        "offset": 0,
        "slot": "7",
        "type": "t_address"
      },
      {
        "astId": 3281,
        "contract": "contracts/ScaffoldRecipeNFTBaseUri.sol:ScaffoldRecipeNFTBaseUri",
        "label": "_nextTokenId",
        "offset": 0,
        "slot": "8",
        "type": "t_uint256"
      },
      {
        "astId": 3283,
        "contract": "contracts/ScaffoldRecipeNFTBaseUri.sol:ScaffoldRecipeNFTBaseUri",
        "label": "baseURI",
        "offset": 0,
        "slot": "9",
        "type": "t_string_storage"
      }
    ],
    "types": {
      "t_address": {
        "encoding": "inplace",
        "label": "address",
        "numberOfBytes": "20"
      },
      "t_bool": {
        "encoding": "inplace",
        "label": "bool",
        "numberOfBytes": "1"
      },
      "t_mapping(t_address,t_bool)": {
        "encoding": "mapping",
        "key": "t_address",
        "label": "mapping(address => bool)",
        "numberOfBytes": "32",
        "value": "t_bool"
      },
      "t_mapping(t_address,t_mapping(t_address,t_bool))": {
        "encoding": "mapping",
        "key": "t_address",
        "label": "mapping(address => mapping(address => bool))",
        "numberOfBytes": "32",
        "value": "t_mapping(t_address,t_bool)"
      },
      "t_mapping(t_address,t_uint256)": {
        "encoding": "mapping",
        "key": "t_address",
        "label": "mapping(address => uint256)",
        "numberOfBytes": "32",
        "value": "t_uint256"
      },
      "t_mapping(t_uint256,t_address)": {
        "encoding": "mapping",
        "key": "t_uint256",
        "label": "mapping(uint256 => address)",
        "numberOfBytes": "32",
        "value": "t_address"
      },
      "t_mapping(t_uint256,t_string_storage)": {
        "encoding": "mapping",
        "key": "t_uint256",
        "label": "mapping(uint256 => string)",
        "numberOfBytes": "32",
        "value": "t_string_storage"
      },
      "t_string_storage": {
        "encoding": "bytes",
        "label": "string",
        "numberOfBytes": "32"
      },
      "t_uint256": {
        "encoding": "inplace",
        "label": "uint256",
        "numberOfBytes": "32"
      }
    }
  }
}