{
  "address": "0x4112575fF3F68f5C7ee0eAae1Fa11516105E6a3f",
  "abi": [
    {
      "inputs": [],
      "stateMutability": "nonpayable",
      "type": "constructor"
    },
    {
      "inputs": [
        {
          "internalType": "address",
          "name": "sender",
          "type": "address"
        },
        {
          "internalType": "uint256",
          "name": "tokenId",
          "type": "uint256"
        },
        {
          "internalType": "address",
          "name": "owner",
          "type": "address"
        }
      ],
      "name": "ERC721IncorrectOwner",
      "type": "error"
    },
    {
      "inputs": [
        {
          "internalType": "address",
          "name": "operator",
          "type": "address"
        },
        {
          "internalType": "uint256",
          "name": "tokenId",
          "type": "uint256"
        }
      ],
      "name": "ERC721InsufficientApproval",
      "type": "error"
    },
    {
      "inputs": [
        {
          "internalType": "address",
          "name": "approver",
          "type": "address"
        }
      ],
      "name": "ERC721InvalidApprover",
      "type": "error"
    },
    {
      "inputs": [
        {
          "internalType": "address",
          "name": "operator",
          "type": "address"
        }
      ],
      "name": "ERC721InvalidOperator",
      "type": "error"
    },
    {
      "inputs": [
        {
          "internalType": "address",
          "name": "owner",
          "type": "address"
        }
      ],
      "name": "ERC721InvalidOwner",
      "type": "error"
    },
    {
      "inputs": [
        {
          "internalType": "address",
          "name": "receiver",
          "type": "address"
        }
      ],
      "name": "ERC721InvalidReceiver",
      "type": "error"
    },
    {
      "inputs": [
        {
          "internalType": "address",
          "name": "sender",
          "type": "address"
        }
      ],
      "name": "ERC721InvalidSender",
      "type": "error"
    },
    {
      "inputs": [
        {
          "internalType": "uint256",
          "name": "tokenId",
          "type": "uint256"
        }
      ],
      "name": "ERC721NonexistentToken",
      "type": "error"
    },
    {
      "inputs": [
        {
          "internalType": "address",
          "name": "owner",
          "type": "address"
        }
      ],
      "name": "OwnableInvalidOwner",
      "type": "error"
    },
    {
      "inputs": [
        {
          "internalType": "address",
          "name": "account",
          "type": "address"
        }
      ],
      "name": "OwnableUnauthorizedAccount",
      "type": "error"
    },
    {
      "anonymous": false,
      "inputs": [
        {
          "indexed": true,
          "internalType": "address",
          "name": "owner",
          "type": "address"
        },
        {
          "indexed": true,
          "internalType": "address",
          "name": "approved",
          "type": "address"
        },
        {
          "indexed": true,
          "internalType": "uint256",
          "name": "tokenId",
          "type": "uint256"
        }
      ],
      "name": "Approval",
      "type": "event"
    },
    {
      "anonymous": false,
      "inputs": [
        {
          "indexed": true,
          "internalType": "address",
          "name": "owner",
          "type": "address"
        },
        {
          "indexed": true,
          "internalType": "address",
          "name": "operator",
          "type": "address"
        },
        {
          "indexed": false,
          "internalType": "bool",
          "name": "approved",
          "type": "bool"
        }
      ],
      "name": "ApprovalForAll",
      "type": "event"
    },
    {
      "anonymous": false,
      "inputs": [
        {
          "indexed": true,
          "internalType": "address",
          "name": "previousOwner",
          "type": "address"
        },
        {
          "indexed": true,
          "internalType": "address",
          "name": "newOwner",
          "type": "address"
        }
      ],
      "name": "OwnershipTransferred",
      "type": "event"
    },
    {
      "anonymous": false,
      "inputs": [
        {
          "indexed": true,
          "internalType": "address",
          "name": "from",
          "type": "address"
        },
        {
          "indexed": true,
          "internalType": "address",
          "name": "to",
          "type": "address"
        },
        {
          "indexed": true,
          "internalType": "uint256",
          "name": "tokenId",
          "type": "uint256"
        }
      ],
      "name": "Transfer",
      "type": "event"
    },
    {
      "inputs": [
        {
          "internalType": "address",
          "name": "to",
          "type": "address"
        },
        {
          "internalType": "uint256",
          "name": "tokenId",
          "type": "uint256"
        }
      ],
      "name": "approve",
      "outputs": [],
      "stateMutability": "nonpayable",
      "type": "function"
    },
    {
      "inputs": [
        {
          "internalType": "address",
          "name": "owner",
          "type": "address"
        }
      ],
      "name": "balanceOf",
      "outputs": [
        {
          "internalType": "uint256",
          "name": "",
          "type": "uint256"
        }
      ],
      "stateMutability": "view",
      "type": "function"
    },
    {
      "inputs": [
        {
          "internalType": "uint256",
          "name": "tokenId",
          "type": "uint256"
        }
      ],
      "name": "burn",
      "outputs": [],
      "stateMutability": "nonpayable",
      "type": "function"
    },
    {
      "inputs": [
        {
          "internalType": "uint256",
          "name": "tokenId",
          "type": "uint256"
        }
      ],
      "name": "getApproved",
      "outputs": [
        {
          "internalType": "address",
          "name": "",
          "type": "address"
        }
      ],
      "stateMutability": "view",
      "type": "function"
    },
    {
      "inputs": [
        {
          "internalType": "address",
          "name": "owner",
          "type": "address"
        },
        {
          "internalType": "address",
          "name": "operator",
          "type": "address"
        }
      ],
      "name": "isApprovedForAll",
      "outputs": [
        {
          "internalType": "bool",
          "name": "",
          "type": "bool"
        }
      ],
      "stateMutability": "view",
      "type": "function"
    },
    {
      "inputs": [],
      "name": "name",
      "outputs": [
        {
          "internalType": "string",
          "name": "",
          "type": "string"
        }
      ],
      "stateMutability": "view",
      "type": "function"
    },
    {
      "inputs": [],
      "name": "owner",
      "outputs": [
        {
          "internalType": "address",
          "name": "",
          "type": "address"
        }
      ],
      "stateMutability": "view",
      "type": "function"
    },
    {
      "inputs": [
        {
          "internalType": "uint256",
          "name": "tokenId",
          "type": "uint256"
        }
      ],
      "name": "ownerOf",
      "outputs": [
        {
          "internalType": "address",
          "name": "",
          "type": "address"
        }
      ],
      "stateMutability": "view",
      "type": "function"
    },
    {
      "inputs": [],
      "name": "renounceOwnership",
      "outputs": [],
      "stateMutability": "nonpayable",
      "type": "function"
    },
    {
      "inputs": [
        {
          "internalType": "address",
          "name": "to",
          "type": "address"
        },
        {
          "internalType": "string",
          "name": "uri",
          "type": "string"
        }
      ],
      "name": "safeMint",
      "outputs": [],
      "stateMutability": "nonpayable",
      "type": "function"
    },
    {
      "inputs": [
        {
          "internalType": "address",
          "name": "from",
          "type": "address"
        },
        {
          "internalType": "address",
          "name": "to",
          "type": "address"
        },
        {
          "internalType": "uint256",
          "name": "tokenId",
          "type": "uint256"
        }
      ],
      "name": "safeTransferFrom",
      "outputs": [],
      "stateMutability": "nonpayable",
      "type": "function"
    },
    {
      "inputs": [
        {
          "internalType": "address",
          "name": "from",
          "type": "address"
        },
        {
          "internalType": "address",
          "name": "to",
          "type": "address"
        },
        {
          "internalType": "uint256",
          "name": "tokenId",
          "type": "uint256"
        },
        {
          "internalType": "bytes",
          "name": "data",
          "type": "bytes"
        }
      ],
      "name": "safeTransferFrom",
      "outputs": [],
      "stateMutability": "nonpayable",
      "type": "function"
    },
    {
      "inputs": [
        {
          "internalType": "address",
          "name": "operator",
          "type": "address"
        },
        {
          "internalType": "bool",
          "name": "approved",
          "type": "bool"
        }
      ],
      "name": "setApprovalForAll",
      "outputs": [],
      "stateMutability": "nonpayable",
      "type": "function"
    },
    {
      "inputs": [
        {
          "internalType": "bytes4",
          "name": "interfaceId",
          "type": "bytes4"
        }
      ],
      "name": "supportsInterface",
      "outputs": [
        {
          "internalType": "bool",
          "name": "",
          "type": "bool"
        }
      ],
      "stateMutability": "view",
      "type": "function"
    },
    {
      "inputs": [],
      "name": "symbol",
      "outputs": [
        {
          "internalType": "string",
          "name": "",
          "type": "string"
        }
      ],
      "stateMutability": "view",
      "type": "function"
    },
    {
      "inputs": [
        {
          "internalType": "uint256",
          "name": "tokenId",
          "type": "uint256"
        }
      ],
      "name": "tokenURI",
      "outputs": [
        {
          "internalType": "string",
          "name": "",
          "type": "string"
        }
      ],
      "stateMutability": "view",
      "type": "function"
    },
    {
      "inputs": [
        {
          "internalType": "address",
          "name": "from",
          "type": "address"
        },
        {
          "internalType": "address",
          "name": "to",
          "type": "address"
        },
        {
          "internalType": "uint256",
          "name": "tokenId",
          "type": "uint256"
        }
      ],
      "name": "transferFrom",
      "outputs": [],
      "stateMutability": "nonpayable",
      "type": "function"
    },
    {
      "inputs": [
        {
          "internalType": "address",
          "name": "newOwner",
          "type": "address"
        }
      ],
      "name": "transferOwnership",
      "outputs": [],
      "stateMutability": "nonpayable",
      "type": "function"
    }
  ],
  "transactionHash": "0x10952d22fcc39cfa3538763e2e0002eccc39f14f7323815282490c94b30c0f71",
  "args": [],
  "numDeployments": 1,
  "solcInputHash": "eda4bb06d5773e585bea5106d77f4373",
  "bytecode": "0x60806040523480156200001157600080fd5b50336040518060400160405280601881526020017f53636166666f6c645265636970654e46544f6e636861696e00000000000000008152506040518060400160405280600481526020016353524e4f60e01b8152508160009081620000779190620001c3565b506001620000868282620001c3565b5050506001600160a01b038116620000b857604051631e4fbdf760e01b81526000600482015260240160405180910390fd5b620000c381620000ca565b506200028f565b600680546001600160a01b038381166001600160a01b0319831681179093556040519116919082907f8be0079c531659141344cd1fd0a4f28419497f9722a3daafe3b4186f6b6457e090600090a35050565b634e487b7160e01b600052604160045260246000fd5b600181811c908216806200014757607f821691505b6020821081036200016857634e487b7160e01b600052602260045260246000fd5b50919050565b601f821115620001be576000816000526020600020601f850160051c81016020861015620001995750805b601f850160051c820191505b81811015620001ba57828155600101620001a5565b5050505b505050565b81516001600160401b03811115620001df57620001df6200011c565b620001f781620001f0845462000132565b846200016e565b602080601f8311600181146200022f5760008415620002165750858301515b600019600386901b1c1916600185901b178555620001ba565b600085815260208120601f198616915b8281101562000260578886015182559484019460019091019084016200023f565b50858210156200027f5787850151600019600388901b60f8161c191681555b5050505050600190811b01905550565b611607806200029f6000396000f3fe608060405234801561001057600080fd5b50600436106101165760003560e01c8063715018a6116100a2578063b88d4fde11610071578063b88d4fde14610239578063c87b56dd1461024c578063d204c45e1461025f578063e985e9c514610272578063f2fde38b1461028557600080fd5b8063715018a6146102055780638da5cb5b1461020d57806395d89b411461021e578063a22cb4651461022657600080fd5b806323b872dd116100e957806323b872dd1461019857806342842e0e146101ab57806342966c68146101be5780636352211e146101d157806370a08231146101e457600080fd5b806301ffc9a71461011b57806306fdde0314610143578063081812fc14610158578063095ea7b314610183575b600080fd5b61012e610129366004610ef1565b610298565b60405190151581526020015b60405180910390f35b61014b6102a9565b60405161013a9190610f65565b61016b610166366004610f78565b61033b565b6040516001600160a01b03909116815260200161013a565b610196610191366004610fad565b610364565b005b6101966101a6366004610fd7565b610373565b6101966101b9366004610fd7565b610403565b6101966101cc366004610f78565b610423565b61016b6101df366004610f78565b61042f565b6101f76101f2366004611013565b61043a565b60405190815260200161013a565b610196610482565b6006546001600160a01b031661016b565b61014b610496565b61019661023436600461102e565b6104a5565b6101966102473660046110f6565b6104b0565b61014b61025a366004610f78565b6104c7565b61019661026d366004611172565b61052f565b61012e6102803660046111d4565b610568565b610196610293366004611013565b610596565b60006102a3826105d4565b92915050565b6060600080546102b890611207565b80601f01602080910402602001604051908101604052809291908181526020018280546102e490611207565b80156103315780601f1061030657610100808354040283529160200191610331565b820191906000526020600020905b81548152906001019060200180831161031457829003601f168201915b5050505050905090565b600061034682610624565b506000828152600460205260409020546001600160a01b03166102a3565b61036f82823361065d565b5050565b6001600160a01b0382166103a257604051633250574960e11b8152600060048201526024015b60405180910390fd5b60006103af83833361066a565b9050836001600160a01b0316816001600160a01b0316146103fd576040516364283d7b60e01b81526001600160a01b0380861660048301526024820184905282166044820152606401610399565b50505050565b61041e838383604051806020016040528060008152506104b0565b505050565b61036f6000823361066a565b60006102a382610624565b60006001600160a01b038216610466576040516322718ad960e21b815260006004820152602401610399565b506001600160a01b031660009081526003602052604090205490565b61048a610763565b6104946000610790565b565b6060600180546102b890611207565b61036f3383836107e2565b6104bb848484610373565b6103fd84848484610881565b60606105096104d5836109aa565b60008481526008602090815260409182902091516104f593929101611241565b604051602081830303815290604052610a3d565b6040516020016105199190611367565b6040516020818303038152906040529050919050565b6007805460009182610540836113c2565b9190505590506105508382610b9d565b60008181526008602052604090206103fd838261142b565b6001600160a01b03918216600090815260056020908152604080832093909416825291909152205460ff1690565b61059e610763565b6001600160a01b0381166105c857604051631e4fbdf760e01b815260006004820152602401610399565b6105d181610790565b50565b60006001600160e01b031982166380ac58cd60e01b148061060557506001600160e01b03198216635b5e139f60e01b145b806102a357506301ffc9a760e01b6001600160e01b03198316146102a3565b6000818152600260205260408120546001600160a01b0316806102a357604051637e27328960e01b815260048101849052602401610399565b61041e8383836001610bb7565b6000828152600260205260408120546001600160a01b039081169083161561069757610697818486610cbd565b6001600160a01b038116156106d5576106b4600085600080610bb7565b6001600160a01b038116600090815260036020526040902080546000190190555b6001600160a01b03851615610704576001600160a01b0385166000908152600360205260409020805460010190555b60008481526002602052604080822080546001600160a01b0319166001600160a01b0389811691821790925591518793918516917fddf252ad1be2c89b69c2b068fc378daa952ba7f163c4a11628f55a4df523b3ef91a4949350505050565b6006546001600160a01b031633146104945760405163118cdaa760e01b8152336004820152602401610399565b600680546001600160a01b038381166001600160a01b0319831681179093556040519116919082907f8be0079c531659141344cd1fd0a4f28419497f9722a3daafe3b4186f6b6457e090600090a35050565b6001600160a01b03821661081457604051630b61174360e31b81526001600160a01b0383166004820152602401610399565b6001600160a01b03838116600081815260056020908152604080832094871680845294825291829020805460ff191686151590811790915591519182527f17307eab39ab6107e8899845ad3d59bd9653f200f220920489ca2b5937696c31910160405180910390a3505050565b6001600160a01b0383163b156103fd57604051630a85bd0160e11b81526001600160a01b0384169063150b7a02906108c39033908890879087906004016114eb565b6020604051808303816000875af19250505080156108fe575060408051601f3d908101601f191682019092526108fb91810190611528565b60015b610967573d80801561092c576040519150601f19603f3d011682016040523d82523d6000602084013e610931565b606091505b50805160000361095f57604051633250574960e11b81526001600160a01b0385166004820152602401610399565b805181602001fd5b6001600160e01b03198116630a85bd0160e11b146109a357604051633250574960e11b81526001600160a01b0385166004820152602401610399565b5050505050565b606060006109b783610d21565b600101905060008167ffffffffffffffff8111156109d7576109d761106a565b6040519080825280601f01601f191660200182016040528015610a01576020820181803683370190505b5090508181016020015b600019016f181899199a1a9b1b9c1cb0b131b232b360811b600a86061a8153600a8504945084610a0b57509392505050565b60608151600003610a5c57505060408051602081019091526000815290565b60006040518060600160405280604081526020016115926040913990506000600384516002610a8b9190611545565b610a959190611558565b610aa090600461157a565b67ffffffffffffffff811115610ab857610ab861106a565b6040519080825280601f01601f191660200182016040528015610ae2576020820181803683370190505b50905060018201602082018586518701602081018051600082525b82841015610b58576003840193508351603f8160121c168701518653600186019550603f81600c1c168701518653600186019550603f8160061c168701518653600186019550603f8116870151865350600185019450610afd565b9052505085516003900660018114610b775760028114610b8a57610b92565b603d6001830353603d6002830353610b92565b603d60018303535b509195945050505050565b61036f828260405180602001604052806000815250610df9565b8080610bcb57506001600160a01b03821615155b15610c8d576000610bdb84610624565b90506001600160a01b03831615801590610c075750826001600160a01b0316816001600160a01b031614155b8015610c1a5750610c188184610568565b155b15610c435760405163a9fbf51f60e01b81526001600160a01b0384166004820152602401610399565b8115610c8b5783856001600160a01b0316826001600160a01b03167f8c5be1e5ebec7d5bd14f71427d1e84f3dd0314c0f7b2291e5b200ac8c7c3b92560405160405180910390a45b505b5050600090815260046020526040902080546001600160a01b0319166001600160a01b0392909216919091179055565b610cc8838383610e10565b61041e576001600160a01b038316610cf657604051637e27328960e01b815260048101829052602401610399565b60405163177e802f60e01b81526001600160a01b038316600482015260248101829052604401610399565b60008072184f03e93ff9f4daa797ed6e38ed64bf6a1f0160401b8310610d605772184f03e93ff9f4daa797ed6e38ed64bf6a1f0160401b830492506040015b6d04ee2d6d415b85acef81000000008310610d8c576d04ee2d6d415b85acef8100000000830492506020015b662386f26fc100008310610daa57662386f26fc10000830492506010015b6305f5e1008310610dc2576305f5e100830492506008015b6127108310610dd657612710830492506004015b60648310610de8576064830492506002015b600a83106102a35760010192915050565b610e038383610e76565b61041e6000848484610881565b60006001600160a01b03831615801590610e6e5750826001600160a01b0316846001600160a01b03161480610e4a5750610e4a8484610568565b80610e6e57506000828152600460205260409020546001600160a01b038481169116145b949350505050565b6001600160a01b038216610ea057604051633250574960e11b815260006004820152602401610399565b6000610eae8383600061066a565b90506001600160a01b0381161561041e576040516339e3563760e11b815260006004820152602401610399565b6001600160e01b0319811681146105d157600080fd5b600060208284031215610f0357600080fd5b8135610f0e81610edb565b9392505050565b60005b83811015610f30578181015183820152602001610f18565b50506000910152565b60008151808452610f51816020860160208601610f15565b601f01601f19169290920160200192915050565b602081526000610f0e6020830184610f39565b600060208284031215610f8a57600080fd5b5035919050565b80356001600160a01b0381168114610fa857600080fd5b919050565b60008060408385031215610fc057600080fd5b610fc983610f91565b946020939093013593505050565b600080600060608486031215610fec57600080fd5b610ff584610f91565b925061100360208501610f91565b9150604084013590509250925092565b60006020828403121561102557600080fd5b610f0e82610f91565b6000806040838503121561104157600080fd5b61104a83610f91565b91506020830135801515811461105f57600080fd5b809150509250929050565b634e487b7160e01b600052604160045260246000fd5b600067ffffffffffffffff8084111561109b5761109b61106a565b604051601f8501601f19908116603f011681019082821181831017156110c3576110c361106a565b816040528093508581528686860111156110dc57600080fd5b858560208301376000602087830101525050509392505050565b6000806000806080858703121561110c57600080fd5b61111585610f91565b935061112360208601610f91565b925060408501359150606085013567ffffffffffffffff81111561114657600080fd5b8501601f8101871361115757600080fd5b61116687823560208401611080565b91505092959194509250565b6000806040838503121561118557600080fd5b61118e83610f91565b9150602083013567ffffffffffffffff8111156111aa57600080fd5b8301601f810185136111bb57600080fd5b6111ca85823560208401611080565b9150509250929050565b600080604083850312156111e757600080fd5b6111f083610f91565b91506111fe60208401610f91565b90509250929050565b600181811c9082168061121b57607f821691505b60208210810361123b57634e487b7160e01b600052602260045260246000fd5b50919050565b7f7b226e616d65223a202253636166666f6c645265636970654e46544f6e63686181526000602063696e202360e01b60208401528451611288816024860160208901610f15565b80840190507f222c20226465736372697074696f6e223a202253636166666f6c64526563697060248201527f654e46544f6e636861696e204e4654222c2022696d616765223a20220000000060448201526060600086546112e881611207565b60018281168015611300576001811461131b5761134d565b60ff198416606088015260608315158402880101945061134d565b8a600052602060002060005b84811015611342578154898201890152908301908901611327565b505060608388010194505b505061227d60f01b83525050600201979650505050505050565b7f646174613a6170706c69636174696f6e2f6a736f6e3b6261736536342c00000081526000825161139f81601d850160208701610f15565b91909101601d0192915050565b634e487b7160e01b600052601160045260246000fd5b6000600182016113d4576113d46113ac565b5060010190565b601f82111561041e576000816000526020600020601f850160051c810160208610156114045750805b601f850160051c820191505b8181101561142357828155600101611410565b505050505050565b815167ffffffffffffffff8111156114455761144561106a565b611459816114538454611207565b846113db565b602080601f83116001811461148e57600084156114765750858301515b600019600386901b1c1916600185901b178555611423565b600085815260208120601f198616915b828110156114bd5788860151825594840194600190910190840161149e565b50858210156114db5787850151600019600388901b60f8161c191681555b5050505050600190811b01905550565b6001600160a01b038581168252841660208201526040810183905260806060820181905260009061151e90830184610f39565b9695505050505050565b60006020828403121561153a57600080fd5b8151610f0e81610edb565b808201808211156102a3576102a36113ac565b60008261157557634e487b7160e01b600052601260045260246000fd5b500490565b80820281158282048414176102a3576102a36113ac56fe4142434445464748494a4b4c4d4e4f505152535455565758595a6162636465666768696a6b6c6d6e6f707172737475767778797a303132333435363738392b2fa26469706673582212203cf5badc45bfa48310830e2b020b1bdc2a9c073bba6c6e9c6c9239754082155c64736f6c63430008170033",
  "devdoc": {
    "errors": {
      "ERC721IncorrectOwner(address,uint256,address)": [
        {
          "details": "Indicates an error related to the ownership over a particular token. Used in transfers.",
          "params": {
            "owner": "Address of the current owner of a token.",
            "sender": "Address whose tokens are being transferred.",
            "tokenId": "Identifier number of a token."
          }
        }
      ],
      "ERC721InsufficientApproval(address,uint256)": [
        {
          "details": "Indicates a failure with the `operator`s approval. Used in transfers.",
          "params": {
            "operator": "Address that may be allowed to operate on tokens without being their owner.",
            "tokenId": "Identifier number of a token."
          }
        }
      ],
      "ERC721InvalidApprover(address)": [
        {
          "details": "Indicates a failure with the `approver` of a token to be approved. Used in approvals.",
          "params": {
            "approver": "Address initiating an approval operation."
          }
        }
      ],
      "ERC721InvalidOperator(address)": [
        {
          "details": "Indicates a failure with the `operator` to be approved. Used in approvals.",
          "params": {
            "operator": "Address that may be allowed to operate on tokens without being their owner."
          }
        }
      ],
      "ERC721InvalidOwner(address)": [
        {
          "details": "Indicates that an address can't be an owner. For example, `address(0)` is a forbidden owner in EIP-20. Used in balance queries.",
          "params": {
            "owner": "Address of the current owner of a token."
          }
        }
      ],
      "ERC721InvalidReceiver(address)": [
        {
          "details": "Indicates a failure with the token `receiver`. Used in transfers.",
          "params": {
            "receiver": "Address to which tokens are being transferred."
          }
        }
      ],
      "ERC721InvalidSender(address)": [
        {
          "details": "Indicates a failure with the token `sender`. Used in transfers.",
          "params": {
            "sender": "Address whose tokens are being transferred."
          }
        }
      ],
      "ERC721NonexistentToken(uint256)": [
        {
          "details": "Indicates a `tokenId` whose `owner` is the zero address.",
          "params": {
            "tokenId": "Identifier number of a token."
          }
        }
      ],
      "OwnableInvalidOwner(address)": [
        {
          "details": "The owner is not a valid owner account. (eg. `address(0)`)"
        }
      ],
      "OwnableUnauthorizedAccount(address)": [
        {
          "details": "The caller account is not authorized to perform an operation."
        }
      ]
    },
    "events": {
      "Approval(address,address,uint256)": {
        "details": "Emitted when `owner` enables `approved` to manage the `tokenId` token."
      },
      "ApprovalForAll(address,address,bool)": {
        "details": "Emitted when `owner` enables or disables (`approved`) `operator` to manage all of its assets."
      },
      "Transfer(address,address,uint256)": {
        "details": "Emitted when `tokenId` token is transferred from `from` to `to`."
      }
    },
    "kind": "dev",
    "methods": {
      "approve(address,uint256)": {
        "details": "See {IERC721-approve}."
      },
      "balanceOf(address)": {
        "details": "See {IERC721-balanceOf}."
      },
      "burn(uint256)": {
        "details": "Burns `tokenId`. See {ERC721-_burn}. Requirements: - The caller must own `tokenId` or be an approved operator."
      },
      "getApproved(uint256)": {
        "details": "See {IERC721-getApproved}."
      },
      "isApprovedForAll(address,address)": {
        "details": "See {IERC721-isApprovedForAll}."
      },
      "name()": {
        "details": "See {IERC721Metadata-name}."
      },
      "owner()": {
        "details": "Returns the address of the current owner."
      },
      "ownerOf(uint256)": {
        "details": "See {IERC721-ownerOf}."
      },
      "renounceOwnership()": {
        "details": "Leaves the contract without owner. It will not be possible to call `onlyOwner` functions. Can only be called by the current owner. NOTE: Renouncing ownership will leave the contract without an owner, thereby disabling any functionality that is only available to the owner."
      },
      "safeMint(address,string)": {
        "params": {
          "to": "The address to mint the token to",
          "uri": "The URI of the token"
        }
      },
      "safeTransferFrom(address,address,uint256)": {
        "details": "See {IERC721-safeTransferFrom}."
      },
      "safeTransferFrom(address,address,uint256,bytes)": {
        "details": "See {IERC721-safeTransferFrom}."
      },
      "setApprovalForAll(address,bool)": {
        "details": "See {IERC721-setApprovalForAll}."
      },
      "supportsInterface(bytes4)": {
        "params": {
          "interfaceId": "The interface ID"
        },
        "returns": {
          "_0": "True if the contract supports the interface, false otherwise"
        }
      },
      "symbol()": {
        "details": "See {IERC721Metadata-symbol}."
      },
      "tokenURI(uint256)": {
        "params": {
          "tokenId": "The token ID"
        },
        "returns": {
          "_0": "The token URI"
        }
      },
      "transferFrom(address,address,uint256)": {
        "details": "See {IERC721-transferFrom}."
      },
      "transferOwnership(address)": {
        "details": "Transfers ownership of the contract to a new account (`newOwner`). Can only be called by the current owner."
      }
    },
    "version": 1
  },
  "userdoc": {
    "kind": "user",
    "methods": {
      "safeMint(address,string)": {
        "notice": "Mint a token"
      },
      "supportsInterface(bytes4)": {
        "notice": "Check if the contract supports the interface"
      },
      "tokenURI(uint256)": {
        "notice": "Get the token URI"
      }
    },
    "version": 1
  },
  "storageLayout": {
    "storage": [
      {
        "astId": 349,
        "contract": "contracts/ScaffoldRecipeNFTOnchain.sol:ScaffoldRecipeNFTOnchain",
        "label": "_name",
        "offset": 0,
        "slot": "0",
        "type": "t_string_storage"
      },
      {
        "astId": 351,
        "contract": "contracts/ScaffoldRecipeNFTOnchain.sol:ScaffoldRecipeNFTOnchain",
        "label": "_symbol",
        "offset": 0,
        "slot": "1",
        "type": "t_string_storage"
      },
      {
        "astId": 355,
        "contract": "contracts/ScaffoldRecipeNFTOnchain.sol:ScaffoldRecipeNFTOnchain",
        "label": "_owners",
        "offset": 0,
        "slot": "2",
        "type": "t_mapping(t_uint256,t_address)"
      },
      {
        "astId": 359,
        "contract": "contracts/ScaffoldRecipeNFTOnchain.sol:ScaffoldRecipeNFTOnchain",
        "label": "_balances",
        "offset": 0,
        "slot": "3",
        "type": "t_mapping(t_address,t_uint256)"
      },
      {
        "astId": 363,
        "contract": "contracts/ScaffoldRecipeNFTOnchain.sol:ScaffoldRecipeNFTOnchain",
        "label": "_tokenApprovals",
        "offset": 0,
        "slot": "4",
        "type": "t_mapping(t_uint256,t_address)"
      },
      {
        "astId": 369,
        "contract": "contracts/ScaffoldRecipeNFTOnchain.sol:ScaffoldRecipeNFTOnchain",
        "label": "_operatorApprovals",
        "offset": 0,
        "slot": "5",
        "type": "t_mapping(t_address,t_mapping(t_address,t_bool))"
      },
      {
        "astId": 8,
        "contract": "contracts/ScaffoldRecipeNFTOnchain.sol:ScaffoldRecipeNFTOnchain",
        "label": "_owner",
        "offset": 0,
        "slot": "6",
        "type": "t_address"
      },
      {
        "astId": 3393,
        "contract": "contracts/ScaffoldRecipeNFTOnchain.sol:ScaffoldRecipeNFTOnchain",
        "label": "_nextTokenId",
        "offset": 0,
        "slot": "7",
        "type": "t_uint256"
      },
      {
        "astId": 3397,
        "contract": "contracts/ScaffoldRecipeNFTOnchain.sol:ScaffoldRecipeNFTOnchain",
        "label": "_tokenURIs",
        "offset": 0,
        "slot": "8",
        "type": "t_mapping(t_uint256,t_string_storage)"
      }
    ],
    "types": {
      "t_address": {
        "encoding": "inplace",
        "label": "address",
        "numberOfBytes": "20"
      },
      "t_bool": {
        "encoding": "inplace",
        "label": "bool",
        "numberOfBytes": "1"
      },
      "t_mapping(t_address,t_bool)": {
        "encoding": "mapping",
        "key": "t_address",
        "label": "mapping(address => bool)",
        "numberOfBytes": "32",
        "value": "t_bool"
      },
      "t_mapping(t_address,t_mapping(t_address,t_bool))": {
        "encoding": "mapping",
        "key": "t_address",
        "label": "mapping(address => mapping(address => bool))",
        "numberOfBytes": "32",
        "value": "t_mapping(t_address,t_bool)"
      },
      "t_mapping(t_address,t_uint256)": {
        "encoding": "mapping",
        "key": "t_address",
        "label": "mapping(address => uint256)",
        "numberOfBytes": "32",
        "value": "t_uint256"
      },
      "t_mapping(t_uint256,t_address)": {
        "encoding": "mapping",
        "key": "t_uint256",
        "label": "mapping(uint256 => address)",
        "numberOfBytes": "32",
        "value": "t_address"
      },
      "t_mapping(t_uint256,t_string_storage)": {
        "encoding": "mapping",
        "key": "t_uint256",
        "label": "mapping(uint256 => string)",
        "numberOfBytes": "32",
        "value": "t_string_storage"
      },
      "t_string_storage": {
        "encoding": "bytes",
        "label": "string",
        "numberOfBytes": "32"
      },
      "t_uint256": {
        "encoding": "inplace",
        "label": "uint256",
        "numberOfBytes": "32"
      }
    }
  }
}